:100000000C9440010C9471010C9471010C947101D9
:100010000C9471010C9471010C9471010C94710198
:100020000C9471010C9471010C9471010C94710188
:100030000C9471010C9471010C9471010C94710178
:100040000C9471010C9471010C9471010C94710168
:100050000C9471010C9471010C9471010C9499052C
:100060000C9471010C9471010C9471010C94710148
:100070000C9471010C9471010C9471010C94710138
:100080000C9471010C9471010C9471010C94710128
:100090000C9471010C9471010C9471010C94710118
:1000A0000C9471010C9471010C9471010C94710108
:1000B0000C9471010C9471010C9471010C947101F8
:1000C0000C9471010C9471010C9471010C947101E8
:1000D0000C9471010C9471010C9471010C947101D8
:1000E0000C947101A706AA069D06A106E106AE06BC
:1000F000B206B806BC06C006C606CA06CE06E106AB
:10010000D406D806DC06084AD73B3BCE016E84BC39
:10011000BFFDC12F3D6C74319ABD56833DDA3D0061
:10012000C77F11BED9E4BB4C3E916BAAAABE0000AA
:1001300000803F000C94C0060C94B2060C94BC06E0
:100140000C94A1060C94CE060C94A7060C946A0598
:100150000C94DC060C94D4060C94D8060C949D06E2
:100160000C94B8060C94AA060C94AE060C94CA061D
:100170000C94C6060C94E1060000090A02080B0C58
:100180000D0706030401000000000000000000004D
:10019000000000000000000000000000000000005F
:1001A0000000000011100F0000000000000000001F
:1001B000000000000000000000000000000001023C
:1001C0001020200808102040102040800201020169
:1001D0000804020101020408102040808040201021
:1001E000080402018004020180402010080402017A
:1001F00008040201010204081020408001020408E2
:1002000010204080050505050705080808080202BA
:1002100002020A0A080804040404010101010101A0
:1002200001010303030303030303040707070C0C83
:100230000C0C0C0C0C0C020202020606060606064A
:1002400006060B0B0B0B0B0B0B0B00002200250003
:1002500028002B002E0031003400020100000501AF
:1002600008010B0100002100240027002A002D00B6
:100270003000330001010000040107010A016A0592
:1002800011241FBECFEFD1E2DEBFCDBF00E00CBF17
:1002900012E0A0E0B2E0E8EBF4E100E00BBF02C046
:1002A00007900D92A830B107D9F722E0A8E0B2E09C
:1002B00001C01D92A932B207E1F711E0C0E4D1E01C
:1002C00000E006C021970109802FFE010E94520A1A
:1002D000CF33D10780E00807A9F70E944E070C949E
:1002E0005B070C940000EF92FF920F93CF93DF9384
:1002F000962FD42FC22F882389F081E0E816F104CD
:10030000B1F11CF4EF28C9F14DC082E0E816F10408
:1003100021F183E0E816F10491F044C081E0E81691
:10032000F104D9F01CF4EF2851F03CC082E0E8164B
:10033000F104E9F083E0E816F104F9F033C060E07D
:10034000892F0E941E0760E08D2F0E941E0760E02B
:100350008C2F0E941E0761E01DC060E0892F0E9463
:100360001E0760E08D2F0E941E0761E00FC060E055
:10037000892F0E941E0761E005C061E0892F0E945D
:100380001E0760E08D2F0E941E0760E08C2F0E94E8
:100390001E0760E0802FDF91CF910F91FF90EF90CB
:1003A0000C941E07DF91CF910F91FF90EF9008956D
:1003B0008F929F92AF92BF92CF92DF92EF92FF9275
:1003C0000F931F93CF93DF936B017C0149015A0177
:1003D0000E94FF070E94CB078B01D82FC92F20E076
:1003E00030E0A901C501B4010E94790987FD09C067
:1003F00020E030E0A901C701B6010E94790987FF1A
:1004000031C020E030E0A901C501B4010E94FA0723
:1004100020E030E0A90118163CF0C701B6010E94A7
:10042000790987FD07C00FC0C501B4010E94FA0712
:10043000181674F020E030E0A901C701B6010E944F
:10044000FA0718162CF02BED3FE049E450E404C005
:100450002BED3FE049EC50E4B8018D2F9C2F0E941A
:100460005F0703C0B8018D2F9C2F6B017C01C70172
:10047000B601DF91CF911F910F91FF90EF90DF9028
:10048000CF90BF90AF909F908F9008953F924F92E2
:100490005F926F927F928F929F92AF92BF92CF9214
:1004A000DF92EF92FF920F931F93CF93DF93CDB71D
:1004B000DEB72C970FB6F894DEBF0FBECDBF2983F1
:1004C0003A834B835C836D837E838F8398872091EF
:1004D00008023091090240910A0250910B02698191
:1004E0007A818B819C810E945E076B017C01209147
:1004F0000C0230910D0240910E0250910F026D815D
:100500007E818F8198850E945E07A70196010E94D7
:10051000D8014B015C012091000230910102409111
:100520000202509103020E945E076B017C0133249A
:10053000339420E030E0A9010E94790918160CF0EC
:10054000312C11E013253110C5C02601370177FA8F
:10055000709477F870942BED3FE049E450E4C301C8
:10056000B2010E9479091816B4F420E030E0A90124
:10057000C301B2010E947909181614F473016201D3
:10058000A70196016BED7FE089EC90E40E945E0785
:100590002B013C0101C0312E20E030E0A901C30154
:1005A000B2010E94790918163CF420E030E74EE1D0
:1005B00055E4C301B20107C0C301B201905820E065
:1005C00030E74EE155E40E9486090E947108698770
:1005D0007A878B879C87412C512C320189859A859B
:1005E000AB85BC85481659066A067B0609F44EC0E1
:1005F000620183E0C822DD2400911E0210911F02D7
:1006000020911C0230911D0240911A0250911B0250
:1006100060911802709119027601311015C080E0C6
:100620000E9473010091160210911702209114028A
:100630003091150240911202509113026091100204
:100640007091110280E014C081E00E94730100915A
:100650001602109117022091140230911502409158
:10066000120250911302609110027091110281E008
:100670000E94730163E070E080E090E00E94080651
:100680009FEF491A590A690A790AA8CF2BED3FE072
:1006900049EC50E4C501B4010E94790918164CF0E8
:1006A0008092000290920102A0920202B092030294
:1006B00020C02BED3FE049EC50E4C501B4010E949D
:1006C0005E07609300027093010280930202909390
:1006D00003020FC02BED3FE049E450E4C701B6012F
:1006E0000E94790918160CF44BCF312E26013701E0
:1006F0005CCF2C960FB6F894DEBF0FBECDBFDF9156
:10070000CF911F910F91FF90EF90DF90CF90BF900E
:10071000AF909F908F907F906F905F904F903F90A1
:1007200008958F929F92AF92BF92CF92DF92EF92F5
:10073000FF920F931F93CF93DF93CDB7DEB76097F0
:100740000FB6F894DEBF0FBECDBF29833A834B832B
:100750005C836D837E838F839887A986BA86CB86D8
:10076000DC86ED86FE860F87188B29813A814B81C6
:100770005C8169857A858B859C850E945E074B012B
:100780005C012D813E814F8158856D857E858F85E9
:1007900098890E945E076B017C01A5019401C50147
:1007A000B4010E9486094B015C01A7019601C701B3
:1007B000B6010E9486099B01AC01C501B4010E94EB
:1007C0005F0760960FB6F894DEBF0FBECDBFDF9116
:1007D000CF911F910F91FF90EF90DF90CF90BF903E
:1007E000AF909F908F900C94F9094F925F926F9207
:1007F0007F928F929F92AF92BF92CF92DF92EF92B1
:10080000FF920F931F93CF93DF93CDB7DEB764971B
:100810000FB6F894DEBF0FBECDBF022F2987132F6E
:100820003A874B875C876D877E878F87988B980187
:100830000E944602A984BA84CB84DC84ED84FE84C1
:100840000F851889209108023091090240910A020F
:1008500050910B0260910C0270910D0280910E027A
:1008600090910F020E9491039B01AC0160910402E0
:10087000709105028091060290910702298B3A8BB4
:100880004B8B5C8B0E94A00829893A894B895C8933
:100890000E9486090E9471082B013C01812C912C39
:1008A000540184149504A604B704B9F1640183E0EB
:1008B000C822DD2400911E0210911F0220911C020B
:1008C00030911D0240911A0250911B026091180252
:1008D00070911902760181E00E9473010091160265
:1008E00010911702209114023091150240911202CA
:1008F00050911302609110027091110280E00E94E9
:10090000730163E070E080E090E00E9408068FEFE2
:10091000881A980AA80AB80AC4CF39855A852B853F
:100920004C85832F952FA22FB42F8093080290938C
:100930000902A0930A02B0930B026D857E858F8514
:10094000988960930C0270930D0280930E0290932D
:100950000F02132F832E952EA22EB42E89829A82F7
:10096000AB82BC8220E030E040E85FE30E945F079A
:10097000E62F462F572FBC014D835E836F83788708
:10098000212F3A814B815C816E2F7E818F819885EA
:100990000E94460264960FB6F894DEBF0FBECDBF2C
:1009A000DF91CF911F910F91FF90EF90DF90CF904B
:1009B000BF90AF909F908F907F906F905F904F907F
:1009C0000895CF93DF93C8E1D2E061E088810E946F
:1009D000E20661E08A810E94E20661E08C810E9469
:1009E000E20661E08E810E94E206C0E1D2E061E0B1
:1009F00088810E94E20661E08A810E94E20661E04D
:100A00008C810E94E20661E08E810E94E20660E134
:100A100077E280E090E0DF91CF910C940806CF92CE
:100A2000DF92EF92FF920F931F93CF93DF93CDB797
:100A3000DEB728970FB6F894DEBF0FBECDBF88E0B3
:100A4000E82E82E0F82E20E030E040E85FE3F70196
:100A500064817581868197810E945E07162FC72E5B
:100A6000D82E092F20E030E040E85FE3F7016081F5
:100A70007181828193810E945E07262F462F572F16
:100A8000BC0149835A836B837C83412F5C2D6D2D80
:100A9000702F4D835E836F8378873A814B815C81B1
:100AA000612F7E818F8198850E94F50360E177E256
:100AB00080E090E028960FB6F894DEBF0FBECDBF61
:100AC000DF91CF911F910F91FF90EF90DF90CF902A
:100AD0000C940806E8E1F2E089E090E091838083DD
:100AE0008AE090E0938382838BE090E09583848317
:100AF0008CE090E097838683E0E1F2E083E090E091
:100B00009183808384E090E09383828386E090E009
:100B10009583848387E090E097838683E8E0F2E022
:100B20001082118212821382148215821682178219
:100B300008951F920F920FB60F9211242F933F9397
:100B40008F939F93AF93BF93809121029091220244
:100B5000A0912302B09124023091200223E0230FC0
:100B60002D3720F40196A11DB11D05C026E8230FE5
:100B70000296A11DB11D2093200280932102909323
:100B80002202A0932302B093240280912502909127
:100B90002602A0912702B09128020196A11DB11D45
:100BA0008093250290932602A0932702B0932802F7
:100BB000BF91AF919F918F913F912F910F900FBE59
:100BC0000F901F9018953FB7F8948091250290914F
:100BD0002602A0912702B091280226B5A89B05C045
:100BE0002F3F19F00196A11DB11D3FBFBA2FA92FAC
:100BF000982F8827820F911DA11DB11DBC01CD0129
:100C000042E0660F771F881F991F4A95D1F7089514
:100C1000CF92DF92EF92FF92CF93DF936B017C0133
:100C20000E94E305EB01C114D104E104F10479F061
:100C30000E94E3056C1B7D0B683E7340A0F381E0CE
:100C4000C81AD108E108F108C851DC4FECCFDF9198
:100C5000CF91FF90EF90DF90CF900895789484B576
:100C6000826084BD84B5816084BD85B5826085BDA8
:100C700085B5816085BDEEE6F0E08081816080838E
:100C8000E1E8F0E010828081826080838081816071
:100C90008083E0E8F0E0808181608083E1EBF0E038
:100CA000808184608083E0EBF0E0808181608083DC
:100CB000E1E9F0E0808182608083808181608083CF
:100CC000E0E9F0E0808181608083E1EAF0E080810A
:100CD00082608083808181608083E0EAF0E08081AF
:100CE00081608083E1E2F1E08081826080838081A5
:100CF00081608083E0E2F1E0808181608083EAE7C7
:100D0000F0E0808184608083808182608083808144
:100D1000816080838081806880831092C100089503
:100D200090E0FC013197E131F10508F04AC08827D5
:100D3000EE58FF4F8F4F0C94520A809180008F77AE
:100D400003C0809180008F7D80938000089584B5DA
:100D50008F7702C084B58F7D84BD08958091B000E7
:100D60008F7703C08091B0008F7D8093B00008958D
:100D7000809190008F7707C0809190008F7D03C095
:100D800080919000877F8093900008958091A000CB
:100D90008F7707C08091A0008F7D03C08091A00055
:100DA000877F8093A0000895809120018F7707C0EE
:100DB000809120018F7D03C080912001877F8093E7
:100DC00020010895CF93DF9390E0FC01E254FE4FA1
:100DD0002491FC01EC5FFD4F8491882361F190E048
:100DE000880F991FFC01EC59FD4FC591D491FC016E
:100DF000E65BFD4FA591B491611109C09FB7F894CE
:100E00008881209582238883EC912E230BC0623049
:100E100061F49FB7F8943881822F8095832388836B
:100E2000EC912E2B2C939FBF06C08FB7F894E881CE
:100E30002E2B28838FBFDF91CF9108951F93CF93DF
:100E4000DF93282F30E0F901E858FE4F8491F90133
:100E5000E254FE4FD491F901EC5FFD4FC491CC23D5
:100E6000C9F0162F81110E949006EC2FF0E0EE0FD2
:100E7000FF1FE65BFD4FA591B4918FB7F894111158
:100E800005C09C91ED2FE095E92302C0EC91ED2B7C
:100E9000EC938FBFDF91CF911F9108950E942E0692
:100EA0000E94E104C0E0D0E00E940F052097E1F32A
:100EB0000E940000F9CFF8940C945A0A5058BB27AE
:100EC000AA270E9476070C943F090E94310938F046
:100ED0000E94380920F039F49F3F19F426F40C944D
:100EE00007090EF4E095E7FB0C940109E92F0E9435
:100EF000500958F3BA17620773078407950720F063
:100F000079F4A6F50C9472090EF4E0950B2EBA2F25
:100F1000A02D0B01B90190010C01CA01A0011124FF
:100F2000FF27591B99F0593F50F4503E68F11A16AB
:100F3000F040A22F232F342F4427585FF3CF46953C
:100F400037952795A795F0405395C9F77EF41F165E
:100F5000BA0B620B730B840BBAF09150A1F0FF0F28
:100F6000BB1F661F771F881FC2F70EC0BA0F621F14
:100F7000731F841F48F4879577956795B795F79504
:100F80009E3F08F0B0CF9395880F08F09927EE0F99
:100F9000979587950895DF93DD27B92FBF7740E8B0
:100FA0005FE31616170648075B0718F4D92F0E944F
:100FB0007E099F938F937F936F930E94390AE6E097
:100FC000F1E00E940A090E943F092F913F914F9141
:100FD0005F910E949909DD2351F09058A2EA2AED11
:100FE0003FE049EC5FE3D0785D270E947607DF9110
:100FF0000C943F090E94DD0808F481E008950E94E6
:1010000013080C943F090E94380958F00E943109D6
:1010100040F029F45F3F29F00C94010951110C9420
:1010200073090C9407090E94500968F39923B1F3DE
:10103000552391F3951B550BBB27AA2762177307FE
:10104000840738F09F5F5F4F220F331F441FAA1F92
:10105000A9F335D00E2E3AF0E0E832D0915050404E
:10106000E695001CCAF72BD0FE2F29D0660F771FFC
:10107000881FBB1F261737074807AB07B0E809F0E2
:10108000BB0B802DBF01FF2793585F4F3AF09E3F67
:10109000510578F00C9401090C9473095F3FE4F357
:1010A000983ED4F3869577956795B795F7959F5FAA
:1010B000C9F7880F911D9695879597F90895E1E0F6
:1010C000660F771F881FBB1F621773078407BA0755
:1010D00020F0621B730B840BBA0BEE1F88F7E095B0
:1010E00008950E94580988F09F5798F0B92F9927C2
:1010F000B751B0F0E1F0660F771F881F991F1AF003
:10110000BA95C9F714C0B13091F00E947209B1E0EC
:1011100008950C947209672F782F8827B85F39F0EB
:10112000B93FCCF3869577956795B395D9F73EF49B
:1011300090958095709561957F4F8F4F9F4F089543
:10114000E89409C097FB3EF4909580957095619561
:101150007F4F8F4F9F4F9923A9F0F92F96E9BB2717
:101160009395F695879577956795B795F111F8CF93
:10117000FAF4BB0F11F460FF1BC06F5F7F4F8F4FFE
:101180009F4F16C0882311F096E911C0772321F0F4
:101190009EE8872F762F05C0662371F096E8862F8C
:1011A00070E060E02AF09A95660F771F881FDAF7E3
:1011B000880F9695879597F90895990F0008550F10
:1011C000AA0BE0E8FEEF16161706E807F907C0F0CD
:1011D00012161306E407F50798F0621B730B840BD5
:1011E000950B39F40A2661F0232B242B252B21F4AF
:1011F00008950A2609F4A140A6958FEF811D811D4F
:10120000089597F99F6780E870E060E008959FEF88
:1012100080EC0895DF93CF931F930F93FF92EF928B
:10122000DF927B018C01689406C0DA2EEF010E94E8
:101230009909FE01E894A591259135914591559123
:10124000A6F3EF010E947607FE019701A801DA9448
:1012500069F7DF90EF90FF900F911F91CF91DF9191
:10126000089500240A94161617061806090608950C
:1012700000240A9412161306140605060895092E72
:101280000394000C11F4882352F0BB0F40F4BF2BE1
:1012900011F460FF04C06F5F7F4F8F4F9F4F089521
:1012A00057FD9058440F551F59F05F3F71F0479517
:1012B000880F97FB991F61F09F3F79F087950895FC
:1012C000121613061406551FF2CF4695F1DF08C01B
:1012D000161617061806991FF1CF86957105610538
:1012E00008940895E894BB2766277727CB0197F9E0
:1012F00008950E94DD0808F48FEF08959B01AC016A
:1013000060E070E080E89FE30C94FF070E94990979
:101310000C943F090E94310938F00E94380920F0EE
:10132000952311F00C9401090C94070911240C94D5
:1013300073090E94500970F3959FC1F3950F50E017
:10134000551F629FF001729FBB27F00DB11D639F77
:10135000AA27F00DB11DAA1F649F6627B00DA11D1D
:10136000661F829F2227B00DA11D621F739FB00DC3
:10137000A11D621F839FA00D611D221F749F332733
:10138000A00D611D231F849F600D211D822F762FCC
:101390006A2F11249F5750409AF0F1F088234AF0A9
:1013A000EE0FFF1FBB1F661F771F881F9150504015
:1013B000A9F79E3F510580F00C9401090C94730924
:1013C0005F3FE4F3983ED4F3869577956795B7959C
:1013D000F795E7959F5FC1F7FE2B880F911D9695B6
:1013E000879597F9089519F416F40C9407090C944D
:1013F0003D0A0E945809B8F39923C9F3B6F39F57E1
:10140000550B87FF0E944B0A0024A0E640EA90019A
:1014100080585695979528F4805C660F771F881F33
:1014200020F026173707480730F4621B730B840B34
:10143000202931294A2BA695179407942025312578
:101440004A2758F7660F771F881F20F0261737079F
:10145000480730F4620B730B840B200D311D411DC6
:10146000A09581F7B901842F9158880F969587959B
:1014700008959B01AC010C9486099F3F31F0915077
:1014800020F4879577956795B795880F911D969568
:10149000879597F9089591505040660F771F881FE0
:1014A000D2F70895EE0FFF1F881F8BBF0790F691AC
:0814B000E02D1994F894FFCF20
:0814B800DB0FC93FDD19000044
:00000001FF
